:100000000C944C020C94E1270C9469020C94690244
:100010000C9469020C9469020C9469020C946902B4
:100020000C9469020C9469020C9483220C9447226C
:100030000C9481230C9469020C9469020C9469025B
:100040000C9469020C9469020C9469020C94690284
:100050000C9469020C945B230C9469020C94690261
:100060000C9469020C9469020C9469020C94690264
:100070000C9469020C9469020C9469020C94690254
:100080000C9469020C9469020C9469020C94690244
:100090000C9469020C9469020C9469020C94690234
:1000A0000C9469020C9469020C94690235001E00DC
:1000B0001F002000210022005200140005001C0037
:1000C00012001800340050002B0006000C0008003D
:1000D000040036003800E1000A001B000D000E008D
:1000E0002F004E00AA00A90039002900E3002A00D1
:1000F000E0002E00270026002500240023005100E8
:100100001D0019001A0007000F002D004F002800E5
:100110001100160017000B0037003100E500130036
:1001200009001000150030004B00BD00BE000100AA
:100130004C0033002C00E20000047F3F1F643214A7
:10014000643214783C1E1E140A05000101010101ED
:100150000101010102020202020202020203030380
:100160000303030303040404040404040505050550
:100170000506060606060707070707080808080910
:100180000909090A0A0A0B0B0B0C0C0C0D0D0D0EBC
:100190000E0E0F0F0F101011111112121313141451
:1001A000151516161717181819191A1A1B1B1C1DC6
:1001B0001D1E1E1F2020212222232424252626271F
:1001C0002829292A2B2C2D2D2E2F30313232333451
:1001D00035363738393A3B3C3D3E3F404142434457
:1001E00045464748494A4C4D4E4F50515354555639
:1001F00058595A5B5D5E5F616264656668696B6CE5
:100200006D6F7072737577787A7B7D7E808283855F
:1002100087888A8C8E8F91939596989A9C9EA0A29F
:10022000A3A5A7A9ABADAFB1B3B5B7BABCBEC0C2A9
:10023000C4C6C9CBCDCFD1D4D6D8DBDDDFE2E4E76D
:10024000E9EBEEF0F3F5F8FAFDFFFFAA7F55402247
:1002500023252628292A2C2D2F3032333536383ABB
:100260003B3D3E4042434547494A4C4E5051535511
:1002700057595A5C5E6062646668696B6D6F717332
:100280007577797B7D7F81838587898A8C8E909233
:100290009496989A9C9E9FA1A3A5A7A8AAACAEAF3E
:1002A000B1B3B4B6B8B9BBBCBEBFC1C2C3C5C6C783
:1002B000C9CACBCCCDCED0D1D2D2D3D4D5D6D7D734
:1002C000D8D9D9DADADBDBDBDCDCDCDCDCDDDDDD7C
:1002D000DDDCDCDCDCDCDBDBDBDADAD9D9D8D7D778
:1002E000D6D5D4D3D2D2D1D0CECDCCCBCAC9C7C625
:1002F000C5C3C2C1BFBEBCBBB9B8B6B4B3B1AFAE63
:10030000ACAAA8A7A5A3A19F9E9C9A989694929008
:100310008E8C8A89878583817F7D7B7977757371E0
:100320006F6D6B6968666462605E5C5A59575553BD
:1003300051504E4C4A4947454342403E3D3B3A3876
:1003400036353332302F2D2C2A2928262523220515
:10035000010902A10185020901A10005091901296C
:10036000081500250195087501810205010930096C
:10037000311581257F95027508810609381581257B
:100380007F950175088106050C0A38021581257FC5
:10039000950175088106C0C005010980A10185038A
:1003A00019012AB700150126B700950175108100C3
:1003B000C0050C0901A101850419012AA00215013B
:1003C00026A002950175108100C005010906A10152
:1003D000050719E029E71500250195087501810237
:1003E0009501750881010507190029FF150026FFF1
:1003F0000095067508810005081901290595057500
:10040000019102950175039101C009023B000201AF
:1004100000A0FA09040000010301010009211101F3
:1004200000012240000705810308000109040100C2
:100430000103000000092111010001227B000705D2
:100440008203200001120100020000000810CB57B7
:10045000210002010200012A035400680065002007
:100460000056006900740065007200620069002097
:10047000004B006500790062006F0061007200644B
:100480000000000E034B0065006500620069006F0C
:10049000000000040309040011241FBECFEFDAE0BE
:1004A000DEBFCDBF11E0A0E0B1E0EAE9F4E502C0B3
:1004B00005900D92AE3AB107D9F722E0AEEAB1E06D
:1004C00001C01D92AD3FB207E1F70E94AA230C9430
:1004D0004B2A0C940000FC01AC014B5F5F4F8FEF87
:1004E00091E32191822728E030E087FF09C0880F3F
:1004F000892721503109C9F7E417F50791F70895C5
:10050000880FF7CFE8EDF0E080818E7F8083109236
:10051000E2001092DA001092E100A0EEB0E08C91BF
:1005200081608C9380818F77808319BCA7EDB0E0C8
:100530008C918E7F8C9380818F7E80831092E302DA
:1005400008952091E4003091E50085E69091EC005B
:1005500090FF06C09091E80090FF06C080E00895EB
:100560009091E80092FDFACF9091F002992391F0DA
:10057000953091F09091EB0095FD10C04091E40012
:100580005091E5002417350709F381509A01F1F6DF
:1005900084E0089582E0089583E0089581E008955D
:1005A000EF92FF920F931F93CF937C018B010E94D8
:1005B000A102C82F811117C08091E80085FD0BC0F2
:1005C0008091E8008E778093E8000E94A102882342
:1005D00099F3C82F08C0F70181917F018093F10042
:1005E0000150110949F78C2FCF911F910F91FF9066
:1005F000EF9008958091F20287FF13C08091E80088
:1006000082FF06C08091E8008B778093E80004C0E9
:100610008091F0028111F2CF08958091F002882339
:10062000D9F38091E80080FFF8CF8091E8008E77C1
:10063000ECCF982F9093E900242F762F50E0891764
:1006400031F07091EC002091ED005091F00021FD0F
:1006500007C09F5F973071F78093E90081E00895AC
:100660003091EB003E7F3093EB003091ED003D7F09
:100670003093ED003091EB0031603093EB007093DC
:10068000EC002093ED005093F0002091EE0027FD48
:10069000E0CF80E00895B0E0A0E0E1E5F3E00C9465
:1006A0000829C8EDD0E088818F7E8883E7EDF0E0EF
:1006B00080818160808384E082BF81E08093E30257
:1006C00088818E7F888302EE10E0F80110821092FC
:1006D000DA0081EEC82ED12CF601108288818F7746
:1006E000888388818068888388818F7D888319BC0E
:1006F0001092F0021092F1021092EF021092EE02AC
:1007000090EEE92EF12CF70180818B7F8083888128
:100710008160888342E060E080E00E941903F60176
:1007200080818E7F8083F8018081816080838081D9
:1007300088608083F70180818E7F808388818061DB
:100740008883CDB7DEB7E8E00C942429FC018091C2
:10075000F8029091F90286179707A0F061157105CC
:1007600029F49091E8009E779093E80090E061155D
:10077000710551F4911108C08091E80082FF35C0E5
:1007800080E00895BC01F2CF8091F0028823C9F186
:100790008530C9F18091E80083FD31C08091E80087
:1007A00082FDEACF8091E80080FFE1CF2091F30045
:1007B0008091F200322F282F6115710519F0283031
:1007C000310558F091E02830310509F090E0209192
:1007D000E8002E772093E800CACF81918093F10042
:1007E000615071092F5F3F4FE7CF8091F00288235E
:1007F00041F0853041F08091E80083FFBDCF81E07A
:10080000089582E0089583E0089508958091E502B7
:1008100008959C014FB7F8948091DC029091DD021D
:10082000A091DE02B091DF024FBF821B930B0895AF
:100830002FB7F8946091DC027091DD028091DE02A6
:100840009091DF022FBF08952FB7F8948091DC02BA
:100850009091DD02A091DE02B091DF022FBF0895DA
:100860002091D9023091DA022817390771F090935C
:10087000DA028093D902E091D702F091D802309742
:1008800021F00084F185E02D099508952091D5028D
:100890003091D6022817390771F09093D6028093D1
:1008A000D502E091D702F091D802309721F006806E
:1008B000F781E02D099508958F929F92AF92BF9294
:1008C000EF92FF920F931F93CF93DF938830B8F589
:1008D000811136C0909180009F7D909380002E986A
:1008E000A0918600B0918700282F30E00E94F32964
:1008F00027E030E040E050E00E94C32989019A01DE
:1009000080918600909187006CE070E00E949B29A6
:1009100060177107D8F0C80169E070E00E949B2958
:1009200070938B0060938A00DF91CF911F910F919C
:10093000FF90EF90BF90AF909F908F90089587E0C9
:1009400090918000906290938000CACF8091860041
:1009500090918700E0908600F0908700E0918600FB
:10096000F0918700C6E0D0E0BE010E949B29060FEF
:10097000171F211D311D4801590185E0880C991C64
:10098000AA1CBB1C8A95D1F7C701BE010E949B29F6
:100990009F0150E040E0260F371F411D511DC5014A
:1009A000B4010E94C32949015A01E0918600F091E7
:1009B0008700CA01B9010E947D299B01AC01DF01BA
:1009C0000E94092A9B01AC01C501B4010E947D2946
:1009D0002FE096958795779567952A95D1F70091A1
:1009E00086001091870030E020E0061717072807DF
:1009F000390708F095CF609186007091870090CFFD
:100A0000FA01811101C0FB01099508950895E5EAF5
:100A1000F2E0118282818460828308958091CF0206
:100A2000982F9E7F29F4817082608093CF02089571
:100A30008A34E8F381708864F8CFB0E0A0E0E3E2A4
:100A4000F5E00C940629C82ED62EE42FF0E0E65BE4
:100A5000FE4F61110FC0E4919E2F8E2FD901119688
:100A60008C931197EC9312969C93CDB7DEB7EAE086
:100A70000C942229E62EF12CE491FE2F0E2F10E08B
:100A800046E0849FC0011124CFEFD0E0BE010E9458
:100A90009B298C2D90E0880F991FA5E5A69FA001AA
:100AA000A79F500D1124841B950BB82EBB0CB80EBC
:100AB000CE018E199F09809FA001819F500D909FAC
:100AC000500D1124952FDB9CD0011124AB2FBB2797
:100AD0006E01CA1ADB0AC09ED001C19EB00DD09E25
:100AE000B00D11248B2F6E01CB18D1085601AE9C8E
:100AF0006001AF9CD00CBE9CD00C1124CD2CDD2409
:100B0000CC19DD09C09F7001C19FF00CD09FF00C83
:100B1000112462307105B1F058F46115710579F056
:100B20006130710509F49ACF8E2FE52F9B2F96CF58
:100B30006430710571F048F066307105A9F78E2FA9
:100B4000EF2D8CCF852F9F2D89CFEB2F852F9F2FBA
:100B500085CF8F2DE52FFBCF0E94240420919B028F
:100B6000211104C020919C02222321F0909398022D
:100B70008093970220919D02211104C020919E0232
:100B8000222321F09093960280939502E091D70260
:100B9000F091D802309749F082E080939902048066
:100BA000F581E02D89E992E0099508958D3ED9F40B
:100BB00090919C0297FF1DC010929C0280919B0215
:100BC000811106C080919C02811102C01092930293
:100BD00080919D02811106C080919E02811102C008
:100BE0001092920208958E3ED9F490919C021916AB
:100BF0001CF39FE0980F983008F03FC0815F990B7D
:100C000021E030E0A90102C0440F551F8A95E2F7A8
:100C1000CA01809590919A02892380939A02CECF3F
:100C200090919B028F3E29F497FFE3CF10929B0295
:100C3000C5CF803F19F41916CCF3DBCF90919D02FC
:100C4000893F29F41916ACF610929D02B7CF8A3F5E
:100C500019F497FFCECFF8CF8B3F39F490919E02D5
:100C600097FFC7CF10929E02A9CF8C3F09F0C1CF4A
:100C700090919E021916B4F3BCCF8D3F31F4809150
:100C800094028E7F8093940299CF8E3F21F48091BD
:100C900094028D7FF7CF8F3F09F090CF809194021F
:100CA0008B7FF0CF8091940280FD16C081FD16C02D
:100CB00082FD16C0809192028823A1F0883280F4D0
:100CC00028E0829FC001112468E270E00E94AF29F1
:100CD000862F672B39F0089582E0089584E0089507
:100CE00088E0089581E008958091940280FD14C009
:100CF00081FD14C082FD16C080919302882381F08B
:100D00008E3180F420E5829FC00111246EE170E0F5
:100D10000E94AF29862F089584E1089588E20895FE
:100D200088E0089580E508958D3E31F40E947406B0
:100D3000819580939C0208958E3E19F40E9474065A
:100D4000F8CF8F3E31F40E947406819580939B0208
:100D50000895803F19F40E947406F8CF893F29F462
:100D60000E94520680939D0208958A3F21F40E94BA
:100D700052068195F7CF8B3F31F40E945206819540
:100D800080939E0208958C3F19F40E945206F8CF7A
:100D90009FE0980F983070F4815F990B21E030E06C
:100DA00001C0220F8A95EAF780919A02822B8093E4
:100DB0009A0208958D3F31F480919402816080936E
:100DC000940208958E3F21F4809194028260F7CFBF
:100DD0008F3FB9F7809194028460F1CF80E008954D
:100DE000F894E82FE295EF70F0E031A1282F2F70F2
:100DF00081E090E001C0880F2A95EAF7982F90953E
:100E0000932391A392A1892B82A378940895909122
:100E1000760292FF06C0282F28712830F9F4877FC8
:100E2000846093FF06C0282F28712831F1F4877E53
:100E300084612091770220FF06C0382F3871383046
:100E4000D9F4877F816021FF06C0282F28712831BF
:100E5000D1F4877E816194FD877E0895282F2471C7
:100E60002430F9F68B7F8860DCCF282F2471243161
:100E700001F78B7E8861DDCF382F3171313019F762
:100E80008E7F8860E0CF282F2171213121F78E7E5F
:100E90008861E1CF7A30A8F4673098F4E62FF0E06B
:100EA00097E0799FE00DF11D112496E4899FE00DF4
:100EB000F11D1124EE0FFF1FE455FF4F8591949112
:100EC000089580E090E00895CF93DF93EC0182389D
:100ED0009105A9F1D8F58133910509F496C048F53B
:100EE0008932910509F48AC08A9709F495C0C11521
:100EF00021E5D20708F0BCC0C11580E5D80708F08D
:100F000018C1C83ED10508F09CC0C03ED10560F5AF
:100F1000C83AD10508F087C0C53AD10508F001C12B
:100F2000C130D10509F108F444C0C430D105E0F462
:100F300040C08533910509F45AC0C997C1F6809124
:100F40007602837089F0C0EED0E00EC0833E91053A
:100F500099F170F4803E910501F1823E910539F6D8
:100F60008091760282FD21C0CE01DF91CF9108955C
:100F7000863E910561F1873E910571F1843E9105B0
:100F800009F0B5CF8091770281FFEECF8091760294
:100F9000C7EED0E084FD0DC0E7CF8091760280FDE2
:100FA00017C19091770290FFDFCFC3EED0E084FFAE
:100FB000DBCFD0E0C0E0D8CF8091760282FD0BC1BC
:100FC0009091770290FDBFCF84FDF3CFCDCF80917C
:100FD000760283FDDDCFC8CF8091760283FDFEC00F
:100FE0009091770291FFF0CFC4EED0E0BDCF809119
:100FF000760285FFB9CFC9E2D0E0B6CF8091760204
:1010000085FFB2CFC5E3D0E0AFCF8091760286FFF7
:10101000ABCFCAE2D0E0A8CF8091760286FFA4CF02
:10102000C1E3D0E0A1CFCF3BD10518F6C85AD0E03C
:10103000CC0FDD1FC45BDE4F0990D881C02DD46476
:1010400093CFC11520E2D20758F4C11581E0D8072B
:1010500008F08ACFCD3ED10508F4ABCFD06584CF60
:10106000C11520E4D20708F4A4CFDF70D06A7CCF8A
:10107000C11585E5D80718F5C11524E5D20708F094
:101080008DC0C11583E5D80708F074C0C11522E5ED
:10109000D20708F46AC0CE018370992721E030E0BE
:1010A00002C0220F331F8A95E2F7C695C69580E2EB
:1010B000C89FE0011124C22BD32BDC6855CFC1158A
:1010C00089E5D807A8F4C11528E5D20708F06BC058
:1010D000C11586E5D80708F06CCF8C2F0E94070752
:1010E000C82FD0E0DC2FCC27CC27DF71D0623CCFDB
:1010F000C1152AE5D20708F45BC0CE0190568115D0
:10110000904208F056CF8D2F8F710E94070790E014
:10111000982F882788279F71DD27D062C82BD92B6D
:1011200023CFC55AD0E0C75BDE4FC881D0E0D06482
:101130001BCFCE01F4E096958795FA95E1F7837081
:101140009C2F937021E030E002C0220F331F9A954C
:10115000E2F73C68382BC695C695C37080E2C89FFD
:10116000E0011124C22BD32BFFCEDC2FCC27C16F83
:10117000D06AFACECE018370992721E030E002C018
:10118000220F331F8A95E2F7C695C69580E2C89F65
:10119000E0011124C22BD32BDA68E6CEDC2FCC275A
:1011A000C46FD06AE1CEDC2FCC27C06FD06ADCCE12
:1011B0008C2F8F700E94070734E0D695C7953A951B
:1011C000E1F7CF70D0E0DC2FCC27D069C82BCCCE94
:1011D000C9E3D0E0C9CEC2EED0E0C6CEC6EED0E0C4
:1011E000C3CE809129028111109229020895982F6F
:1011F0009095809128028923809328020895E0EB3E
:10120000F1E09281891301C01282319691E0E63BB0
:10121000F907B9F70895A2EBB1E0EFEF90E02D9157
:10122000821751F0EF3F19F4211101C0E92F9F5FA0
:101230009630A9F7EF3F09F408950E2E000CFF0B2E
:10124000E055FE4F8283089580911D029091EC013C
:10125000981301C008958F5F8770FACFB0E0A0E0C7
:10126000E4E3F9E00C9407298C01C0907202D0905D
:101270007302E0907402F090750280912A029091BE
:101280002B02A0912C02B0912D02C82AD92AEA2A59
:10129000FB2ACFE1D0E0BC2ED701C6010C2E04C042
:1012A000B695A795979587950A94D2F780FD09C0C2
:1012B000219788F7B12C8B2DCDB7DEB7E9E00C94E0
:1012C0002329B8018C2F0E944A070E9464070197C6
:1012D00079F3F1CFCF93DF93EC010E942E09BE0189
:1012E0000E944A070E946407DF91CF910895292F39
:1012F0009A3080F5873070F590E037E0239F800DBD
:10130000911D1124682F677023E0969587952A9583
:10131000E1F725E0289FF001299FF00D1124E75403
:10132000FE4F50E040E080E0219130E0062E02C008
:10133000369527950A94E2F721703327042E01C0D1
:10134000220F0A94EAF7822B4F5F5F4F4530510519
:1013500059F7089580E00895292F9A30A0F5873035
:1013600090F590E037E0239F800D911D1124282FE8
:10137000277041E001C0440F2A95EAF723E09695D3
:1013800087952A95E1F725E0289FF001299FF00D28
:101390001124E754FE4F30E020E070E05191DF016E
:1013A0001197CB01022E02C0969587950A94E2F719
:1013B000817081958527842385278C932F5F3F4FEC
:1013C0002530310559F70895FC01808191810E94F3
:1013D0006A0992959F70963089F050F4925092303D
:1013E00058F4803F19F030F4883E30F481E00895DD
:1013F0009A50F5CF843FD1F380E00895883EB0F352
:10140000813FD1F7F3CF8093E0027093E2026093C3
:10141000E1028091F002843001F582E08093E900DE
:101420008FEF9091E800815095FD06C095ED9A955B
:10143000F1F700008111F5CF8091E80085FF0DC024
:1014400050E040E063E070E080EE92E00E94D00265
:101450008091E8008E778093E8000895BC0184E0D5
:101460000E94030A0895BC0183E00E94030A0895C4
:1014700022E02093E9002FEF3091E800215035FD64
:1014800006C035ED3A95F1F700002111F5CF209116
:10149000E80025FF0BC050E040E066E070E00E94ED
:1014A000D0028091E8008E778093E8000895CF9372
:1014B000DF9321E02093E9002FEF3091E8002150E5
:1014C00035FD06C035ED3A95F1F700002111F5CF55
:1014D0002091E80025FF14C0EC0150E040E068E0F6
:1014E00070E00E94D0028091E8008E778093E8003F
:1014F00088E0FE01A6EEB2E001900D928A95E1F738
:10150000DF91CF910895409144018091CF0280FFF7
:1015100020C0E091430123E0E29FF0011124E55552
:10152000FD4F539A8BB1877F9BB198603FB7F8947A
:10153000BF01429F600D711D1124AB01E417F50737
:10154000D1F43FBF8FE594E00197F1F700C00000B0
:101550000895809145019091460173E0879FF001C5
:101560001124E555FD4F8917A0F6118210821282D1
:101570008F5F3396F8CF219168E09BB9000000C0DF
:1015800027FF8BB9220F000000C000C000C08BB93C
:1015900000C06A9591F7D2CF0F931F93CF93DF933B
:1015A000EC0110E000E0909147019017110609F05E
:1015B0006CF40E94830A8C8190E0019681709927D7
:1015C0008C83DF91CF911F910F9108952091450158
:1015D000A801420F511D9A01220F331F240F351FFE
:1015E00025553D4F4C816091D1028091D002969556
:1015F0009017110651F04CF0442349F04091D2026B
:101600000E941D050F5F1F4FCECF4423B9F340E06A
:10161000F7CFB0E0A0E0EFE0FBE00C940429EC0190
:101620004C81042F10E09801D8010E94F3299B01FE
:10163000AC010E94092A4B015C01E0E2F0E0E01BF2
:10164000F10BA5E5B0E0AC019B010E94092A6B01FA
:101650007C019F01DF010E94EB299B01AC010E94EC
:10166000142A9B01AC01280D391D4A1D5B1DC701C1
:10167000B6010E94C329022F30E00A3258F5C90191
:10168000880F991F880F991F281B390B37FF02C03D
:101690002F5F3F4F359527951FEF120FF12C85E5F2
:1016A000E82EE01A80914701F81630F10E94830A73
:1016B0009C8181E0992319F0903219F48FEF809387
:1016C000420180914201890F8C83CDB7DEB7ECE0F7
:1016D0000C94202985E590E0821B930B9C01220F3E
:1016E000331F220F331F821B930B97FD0196959595
:1016F00087951FEF180FD2CF8E2DF1FC802F2091F0
:101700004501622F6F0D7727771F9B01220F331F33
:10171000260F371F25553D4F412F6091D1020E9462
:101720001D05F394BFCFEF92FF920F931F93CF93BA
:10173000DF93EC018C81811109C081E08C831092D0
:10174000A90292E09093410180934001809145016C
:101750009091460123E0829FF0011124E555FD4F51
:10176000891758F110E003E060914701161758F10E
:101770000E94830A809140012091A902280F2093A2
:10178000A90290914101980F90934101191654F4C8
:10179000022E000C330B409147014150550B24178A
:1017A000350734F0819580934001813009F41C8223
:1017B000CDB7DEB7E6E00C942629118210821282A2
:1017C0008F5F3396CDCFE12EF12C70E0C7010E94E0
:1017D000AF2920914501820F482F50E02091A902A6
:1017E000022E000C330BE216F306BCF020914101EF
:1017F000022E000C330B2E153F057CF0809F9001CC
:10180000112425553D4F4091D2026091D102809123
:10181000D0020E941D051F5FA7CFFA01EE0FFF1F28
:10182000E40FF51FE555FD4F118210821282F3CFB0
:10183000B0E0A0E0EEE1FCE00C940429EC018A8128
:10184000BB24B39480FF02C0BB24BA94A09047018C
:101850008C81811109C081E0B81220C08FEF8A0D00
:101860008093A80281E08C83F12CE12C4CE0942E33
:10187000EA14B8F00E94830A8091A80291E0B9129C
:1018800057C0811150C08091470181508093A802B8
:101890001C82CDB7DEB7ECE00C9420291092A80290
:1018A000E1CF009145010E0D1F2D111DC801880FBC
:1018B000991F080F191F05551D4FF801118210823D
:1018C000128234E0C32ED12C812C8091A802880D85
:1018D0008D302CF1692D0E948D29892F082E000C46
:1018E000990BE816F90691F48091D2028C9DA00123
:1018F0008D9D500D11245595479555954795980107
:101900006091D1028091D0020E941D058B0CF1E004
:10191000CF1AD108D1F68FEFE81AF80AA9CF87FFBE
:10192000DDCF8A0DDBCF81508093A802BC82B1CF7E
:1019300090E001966091470170E00E94AF2980938A
:10194000A8028C83A6CFEF92FF921F93CF93DF93D1
:10195000EC0110E0EE24EA94F12C60914701161797
:1019600070F00E94830A9A818C8190FF27C08F5F5C
:101970008C83DF91CF911F91FF90EF90089520917C
:101980004501422F410F5527551FCA019A01220FC9
:10199000331F280F391F25553D4F70E0C7010E94A6
:1019A000AF29962F8C814091D2026091D102199F6C
:1019B000800D11240E941D051F5FCFCF8150D8CF0D
:1019C0009091CF0290FF0EC0909145012091460169
:1019D00033E0939FF0011124E555FD4F921718F065
:1019E0000E94830A08958183608342839F5F3396B8
:1019F000F5CFA3E0B0E0EFEFFCE00C940C298C01F4
:101A00008091AA0281110AC09E012F5F3F4F4FEFC4
:101A10006FEF0E941D058A818093AA02F8018481DC
:101A2000813069F038F04091AA02823009F040E03C
:101A300080E003C08091AA0240E060E004C06091B1
:101A4000AA0240E080E00E94E00CF801848190E06E
:101A5000019663E070E00E94AF2984832396E4E05E
:101A60000C942829A3E0B0E0E8E3FDE00C940E29F3
:101A70009091CF0290FF0AC09E012F5F3F4F0E94BE
:101A80001D054B8169818A810E94E00C2396E2E06A
:101A90000C942A29CF93DF93EC01EFECF2E0438121
:101AA00062818C810E94320D8C818F5F8C83DF91EB
:101AB000CF910895CF93DF93EC01EC81F0E0E15BEF
:101AC000FD4F4491EFECF2E0628181810E94320D82
:101AD0008C818F5F8C83DF91CF910895B0E0A0E07F
:101AE000E4E7FDE00C9406297C015B016A0180912A
:101AF000610201E010E08A3010F40AE010E0C1E079
:101B0000D0E0B501C701F6010995811104C0219605
:101B10000C171D072CF4CDB7DEB7EAE00C94222990
:101B2000CC9F9001CD9F300D300D112490E080E0CE
:101B300045E34A95F1F70000019682179307C1F734
:101B4000E0CF80913802811110C08091D80080616F
:101B50008093D8008AE18A95F1F700C08091D9007E
:101B600080FF0AC081E08093380281E090913802C2
:101B7000913009F080E0089582E0809338020E945D
:101B800082021092F002F1CF0E94A10D882359F039
:101B9000E091D702F091D802309729F00190F081BE
:101BA000E02D0995089580E008950F931F930E94FA
:101BB000A10D882329F00E9418041F910F91089508
:101BC0000E94180400916202109163022091640245
:101BD00030916502600F711F821F931FEECF0E942C
:101BE000A10D882319F00E94240408950E94D50DA8
:101BF000CB010895682F86E090E00E94492908955E
:101C0000282F220F220F220F9091D4029770922B2F
:101C10009093D402987F21E009F420E09091D402BF
:101C200020FB90F99093D4020E945C048091D4022E
:101C30000E94FA0D08958091D40280FD13C0816046
:101C40008093D402813019F489E08093D40280918A
:101C5000D4020E94FA0D8091D402869586958695CD
:101C60000E945C040895CF9384E090E00E9435299F
:101C7000C82F82E290E00E943529982F8C2FCF91B7
:101C800008956091CF02669570E04BE050E085E3E7
:101C900091E00E94282A892B19F481E08093A60202
:101CA0000E94EF0D9093A00280939F028091A70263
:101CB00084608093A7020895CF92DF92EF92FF9203
:101CC0006B017C010E940E05B701A60188E090E03F
:101CD0000E945B29FF90EF90DF90CF900895A3E0E2
:101CE000B0E0E5E7FEE00C940729082FD62EF42E8D
:101CF000C22E9091CF0290FF3AC0E92FE695AE2F09
:101D0000B0E0A857BE4F8C918093A5029E7F923081
:101D100091F59E012F5F3F4F802F0E941D054B8143
:101D200069818A810E94E00C8091D002801308C0F2
:101D30008091D1028D1104C08091D2028F1529F0BB
:101D40008091A70282608093A7020093D002D09274
:101D5000D102F092D202CC2051F06091CF0270916A
:101D6000D0028091D1029091D2020E945C0E239603
:101D7000E9E00C942329823019F4F090D202D4CFF8
:101D8000863019F40091D002CFCF8930D9F3893150
:101D900059F6E9516E2F6170B62EE695F0E0E65BDC
:101DA000FD4F1491E12C60914701E61618F00E9456
:101DB000830ABACFE19EC001112470E00E949B29E2
:101DC000802FB11014C0860F20914501622F6E0D37
:101DD0007727771F9B01220F331F260F371F2555AB
:101DE0003D4F4F2D6D2D0E941D05E394DCCF861BCA
:101DF000EBCFEFECF2E0438128E0421B08F440E037
:101E000021E0628181810E946F0E0895EFECF2E083
:101E1000438128E0420F08F44FEF21E06281818185
:101E20000E946F0E0895EFECF2E0628128E0621BE1
:101E300008F460E021E0438181810E946F0E0895E3
:101E4000EFECF2E0628128E0620F08F46FEF21E02E
:101E5000438181810E946F0E0895EFECF2E0818151
:101E600021E04381628188500E946F0E0895EFEC5B
:101E7000F2E0818121E043816281885F0E946F0EE0
:101E800008958091D302882319F081508093D30262
:101E90006091CF027091D0028091D1029091D202D4
:101EA0000E945C0E08958091D302833018F48F5FF6
:101EB0008093D3026091CF027091D0028091D102C1
:101EC0009091D2020E945C0E08959091CF0290FFF3
:101ED00031C0917081112FC092609093CF02809198
:101EE000A70281608093A702662351F06091CF0220
:101EF0007091D0028091D1029091D2020E945C0E2A
:101F00006091CF02669570E04BE050E085E391E090
:101F10000E94282A892BB1F00E94070581E0809356
:101F2000A20220E04091D2026091D1028091D002C1
:101F30000E946F0E0895853210F09864CECF880FFE
:101F4000982BCBCF0E94410EE9CF61E00E94650F34
:101F500008958091CF028695815009F484E261E072
:101F60000E94650F08958091CF0286958F5F85321C
:101F700008F081E061E00E94650F08959091CF0222
:101F800090FF08C09695981728F0961718F40E94AD
:101F9000B30F08950E94A50F0895EFECF2E083E0DF
:101FA000808311828FEF828383831482A5EAB2E05B
:101FB00012968C911297836012968C936081718136
:101FC000828193810E945C0E0895809128029091F5
:101FD0002702892B8093B00190912902992361F007
:101FE000892B8093B001E2EBF1E097E080E0915023
:101FF00019F581110E94F10848E050E06FE172E0AC
:1020000080EB91E00E94352A892BA9F088E0E0EB73
:10201000F1E0AFE1B2E001900D928A95E1F7E09135
:10202000D702F091D802309731F00280F381E02D91
:1020300080EB91E00995089521912223C1F28F5FF1
:10204000D6CF90E080E00E94460490E080E00E94BD
:102050003004109227020E94E50F86E0E9E9F2E0E1
:10206000DF011D928A95E9F7109293021092920275
:10207000109294020E94AC050895609372027093CE
:10208000730280937402909375020E942110089548
:102090000F931F9341E050E060E070E004C0440FF4
:1020A000551F661F771F8A95D2F7CB01BA0160953D
:1020B0007095809590950091720210917302209115
:1020C00074023091750260237123822393230E944E
:1020D0003D101F910F91089590911E0280958923C4
:1020E00080931E02282F277091F4282F082E000CB1
:1020F000330B9217130659F09091770292FF07C0A5
:102100008595859585950E94481010921E02089528
:10211000CF93C0917702C2FB992790F9981791F05D
:1021200080FBC2F9C09377026091760284E090E070
:102130000E9449296C2F82E290E00E94492982E0A6
:102140000E946C10CF9108950F931F9341E050E0CF
:1021500060E070E004C0440F551F661F771F8A952A
:10216000D2F78091720290917302A0917402B091A3
:1021700075028A019B01082B192B2A2B3B2BC901C5
:10218000B8010E943D101F910F91089560932A029B
:1021900070932B0280932C0290932D020E942110A9
:1021A0000895882321F00E94F7080E94E50F089502
:1021B000882339F090912802892B809328020E946D
:1021C000E50F0895882309F455C0823879F40E94F8
:1021D000C40D81FF4FC089E30E940B090E94E50FE7
:1021E00089E30E94FF080E94E50F0895833859F49F
:1021F0000E94C40D80FF3EC083E50E940B090E942F
:10220000E50F83E5EECF843859F40E94C40D82FFB8
:1022100031C087E40E940B090E94E50F87E4E1CFFB
:102220009CEF980F913AE8F290E2980F983050F4B2
:10223000877091E001C0990F8A95EAF7892F0E9473
:10224000F708D1CF9BE5980F933028F490E080E019
:102250000E944604089598E5980F973128F490E07D
:1022600080E00E94300408958D3E20F00E94D60543
:102270000E94AC050895CF938823D1F0C82F8238EF
:10228000C9F40E94C40D81FD13C089E30E940B09AB
:102290000E94E50F2FEF81EE94E0215080409040A6
:1022A000E1F700C0000089E30E94FF080E94E50FEB
:1022B000CF9108958338A1F40E94C40D80FDF8CF1A
:1022C00083E50E940B090E94E50F2FEF81EE94E059
:1022D000215080409040E1F700C0000083E5E4CF4A
:1022E0008438A1F40E94C40D82FDE2CF87E40E94ED
:1022F0000B090E94E50F2FEF81EE94E02150804002
:102300009040E1F700C0000087E4CECF8CEF8C0F47
:10231000813A68F4E2EBF1E08191C817E1F121E044
:10232000E83BF207C9F78C2F0E940B09BFCF80E270
:102330008C0F883068F4C77021E030E001C0220FB4
:10234000CA95EAF780912802822B80932802AECFAB
:10235000EBE5EC0FE33040F4F0E0E75BFE4F80810B
:1023600090E00E944604A4CFE8E5EC0FE73150F47A
:10237000F0E0EE0FFF1FE45BFE4F808191810E9431
:10238000300496CFCD3E08F493CF8C2F0E94940654
:102390000E94AC058DCF8C2F0E94FF080E94E50F94
:1023A000C2CF0F931F93CF93DF93C62FD42F122F3B
:1023B000FC0182818823A9F06093FC020E9424041E
:1023C0009093FB028093FA02C77081E001C0880FEE
:1023D000CA95EAF70E94D810DF91CF911F910F9113
:1023E00008958091FC02681335C08091FA029091A3
:1023F000FB020E940904883C910560F500E20D0F84
:10240000CD17B9F080E28C0F883040F4C77081E0BE
:1024100001C0880FCA95EAF70E94D110083008F56C
:1024200081E09D2F977001C0880F9A95EAF70E946E
:10243000D810812F0E943B11812F0E94E21008309A
:1024400058F6D77081E001C0880FDA95EAF70E944C
:10245000D110C2CFC77081E001C0880FCA95EAF7DA
:10246000F6CF812F0E943B11812F0E94E210B4CF42
:1024700010922802E2EBF1E086E0DF011D928A95DE
:10248000E9F70E9421100895AAE2B0E0EAE4F2E13F
:102490000C940D29E2EFF2E08091F100819322E0AB
:1024A000EA3FF207C9F78091F302833009F47DC057
:1024B00008F5813009F454C0823009F4BEC080911F
:1024C000E80083FFF8C08091F2029091F3029A3005
:1024D00008F0F1C0E92FF0E0E059FD4E0C94E52939
:1024E0002E1354135B1354135B13AC13CE135B13F3
:1024F000CC14D9148A3009F48FC08B3009F472C01F
:102500008930E9F68091F2028132C9F68091F602B3
:102510009091F702029798F68091E800877F809368
:10252000E8008091E80082FF3BC08091F300909129
:10253000F200892798278927029731F48091F100CA
:10254000813011F0863021F48091F1008093E50212
:102550008091E8008B778093E8000E94FA02AFCF69
:102560008091F202813A09F0AACF8091E800877F3A
:102570008093E8008091F6029091F702892B61F038
:1025800060E090E080E070E00E94A6038091E800A7
:102590008B778093E80093CF68E086EE92E0F3CFEC
:1025A0008091F0028111BDCF8ACF8091F202813AF1
:1025B00009F085CF8091F6029091F702892B09F0FE
:1025C0007ECF8091E800877F8093E8008091E800CB
:1025D00080FFFCCF809148018093F1008091E8005A
:1025E0008E77B9CF8091F202813209F068CF809165
:1025F000F6029091F702892B09F061CF8091E800F3
:10260000877F8093E8000E94FA028091F402809311
:1026100048010E94381253CF8091F202813209F0B2
:102620004ECF8091E800877F8093E8000E94FA02F5
:102630008091F5028093E40242CF8091F202813AC8
:1026400009F03DCF8091E800877F8093E80080917A
:10265000E80080FFFCCF8091E402BECF803889F093
:10266000823849F58091F6028F70873020F580938B
:10267000E9008091EB0085FB882780F91092E90042
:1026800006C08091EE029091EF02911182609091CC
:10269000E800977F9093E8008093F1001092F1009A
:1026A0008091E8008E7727C0282F2D7F21F4882382
:1026B000A1F0823029F18091E80083FF0AC0809167
:1026C000E800877F8093E8008091EB008062809330
:1026D000EB00AA96E3E00C9429298091F402813062
:1026E00051F7933009F080E08093EF021092E900F7
:1026F0008091E800877F8093E8000E94FA02DBCF98
:102700008091F4028111F2CF8091F6028F702FEF49
:10271000280F263080F68093E9002091EB0020FFFF
:10272000E5CF933031F48091EB0080628093EB0031
:10273000DDCF9091EB0090619093EB0021E030E0D1
:1027400001C0220F8A95EAF72093EA001092EA006E
:102750008091EB008860EACF8111ADCF1091F40237
:102760001F778091E3008078812B8093E300809134
:10277000E800877F8093E8000E94FA028091E800D9
:1027800080FFFCCF8091E30080688093E30083E0CA
:10279000111101C082E08093F0028DCF8058823009
:1027A00008F089CF8091F4029091F5028C3D23E0EE
:1027B0009207A1F583E08A838AE289834FB7F89470
:1027C000DE01139620E03EE051E2E32FF0E050936B
:1027D0005700E49120FF03C0E295EF703F5FEF7078
:1027E0008E2F90E0EA30C0F0C7968D939D932F5FB7
:1027F000243159F74FBF8091E800877F8093E8002C
:102800006AE270E0CE0101960E94A6038091E80082
:102810008B778093E8004FCFC096E7CF4091F602C8
:102820005091F702292F33272330310509F443C093
:1028300078F52130310509F46DC08BE390E0EAE0D2
:10284000F4E02230310509F036CF2091E800277FEF
:102850002093E8002091F8023091F9028217930743
:1028600008F49C0140E02115310509F062C04111D6
:1028700060C08091E80082FDC9CF8091F00288237A
:1028800029F2853019F28091E80083FFF2CFBECFA4
:102890002132310599F12232310509F00CCF411571
:1028A000510509F441C08BE790E0EFE4F3E04130DB
:1028B000510559F200CF992781309105B9F058F0B0
:1028C000029709F0F8CEE7E5F4E0E4918E2F90E06E
:1028D000E7E5F4E007C0E3E9F4E0E4918E2F90E04F
:1028E000E3E9F4E0009709F4E6CEAFCFE3E8F4E0E3
:1028F000E4918E2F90E0E3E8F4E0F4CF4115510528
:1029000071F089E090E0E5E3F4E04130510509F42D
:102910009CCFD1CE82E190E0E5E4F4E096CF89E06F
:1029200090E0ECE1F4E091CF80E490E0EAECF3E0B9
:102930008CCF8091F002882309F468CF853009F4A8
:1029400065CF8091E80083FD61CF8091E80082FD32
:1029500090CF8091E80080FF86CF8091F300909126
:10296000F2008927982789272115310519F0883029
:10297000910550F041E0089709F040E08091E800AF
:102980008E778093E8006FCF44914093F1003196A9
:10299000215031090196E8CF803809F08CCE809122
:1029A000E800877F8093E8008091F1028093F10036
:1029B00077CE811180CE1091F402123008F07BCED8
:1029C0008091E800877F8093E8001093F1020E94D5
:1029D000FA02112381F084E08093F00242E061EC7E
:1029E00081E00E94190342E261EC82E00E94190337
:1029F0008091F00260CE8091E30087FDECCF81E012
:102A0000EBCF0E9438122FEF84E39CE021508040EE
:102A10009040E1F700C0000088E19AE00FB6F8941A
:102A2000A895809360000FBE90936000FFCFB0E048
:102A3000A0E0EDE1F5E10C940429FB018080918098
:102A4000A280B3809FB7F894C090DC02D090DD02E2
:102A5000E090DE02F090DF029FBFC818D908EA08B4
:102A6000FB0894E6C916D104E104F10418F4C1E0AE
:102A7000442341F1C82F880FDD0BDE0183E0AA0F4C
:102A8000BB1F8A95E1F7A050BF4F11968D919C9185
:102A900012978E5B9D4F4C9150E00417150708F478
:102AA000A801B9018F010E94422ACE010E94872805
:102AB000C82F882339F00E941804F80160837183BD
:102AC000828393838C2FCDB7DEB7ECE00C94202962
:102AD000A8E0B0E0EEE6F5E10C940C2985E0EFEC1F
:102AE000F2E0DE01119601900D928A95E1F7809156
:102AF000A5029091A602A091A7028E839F83A8872A
:102B000041E08885811101C040E008E010E09E01AD
:102B10002F5F3F4F6DE572E084E00E941715811131
:102B20001092A7022896E4E00C942829A1E0B0E0D6
:102B3000ECE9F5E10C940C298091D40280FF18C0D7
:102B4000869586958695898341E090914C029813ED
:102B500001C040E001E010E09E012F5F3F4F69E5BA
:102B600072E083E00E9417152196E4E00C94282976
:102B700080E0E9CFA4E0B0E0E0ECF5E10C940D29B1
:102B8000409155025091560260915702709158023F
:102B90002FB7F8948091DC029091DD02A091DE02C3
:102BA000B091DF022FBF841B950BA60BB70B11E072
:102BB00084369105A105B10570F10E94D50D6E5FB7
:102BC0007F4F8F4F9F4F69837A838B839C83809144
:102BD0001101909112018E5B9D4F4091100150E0C8
:102BE0004530510510F044E050E0BE016F5F7F4F6B
:102BF0000E94422A82E090E00E948728182F8823B2
:102C000051F00E941804609355027093560280930D
:102C1000570290935802812F2496E3E00C942929BF
:102C2000EF92FF921F93CF93DF9300D000D000D09C
:102C3000CDB7DEB77B0190E080E00E948728182F97
:102C4000882309F46DC04091030150E041155105FE
:102C500011F041E050E060910401709105016E5B5C
:102C60007D4FCE0106960E94422A40913E0250912D
:102C70003F0260914002709141022FB7F894809119
:102C8000DC029091DD02A091DE02B091DF022FBF45
:102C9000841B950BA60BB70B84369105A105B105D6
:102CA00038F483E492E00E946B029E818917C1F19F
:102CB00081E090E00E948728182F882391F04091AE
:102CC0000B0150E04630510510F045E050E06091B6
:102CD0000C0170910D016E5B7D4FCE0101960E943B
:102CE000422A83E492E00E946B0291E02E81281335
:102CF00090E0192301F10E94180460933E02709342
:102D00003F02809340029093410285E0FE0131969C
:102D1000A9E3B2E001900D928A95E1F711E00BC0B2
:102D200085E0E3E4F2E0DE01119601900D928A95D0
:102D3000E1F71111EACF85E0E9E3F2E0D701019074
:102D40000D928A95E1F7812F26960FB6F894DEBF93
:102D50000FBECDBFDF91CF911F91FF90EF900895EF
:102D6000AFE0B0E0E6EBF6E10C9403298E010F5FD3
:102D70001F4F8AE0D8011D928A95E9F79CE7E92E5A
:102D800091E0F92E680121E8A22E21E0B22E8824DC
:102D90008394912CF70181917F018F3F09F441C009
:102DA000F894E82FE295EF70F0E021A18F70A40174
:102DB00002C0440F551F8A95E2F7CA01922F982B43
:102DC00091A392A18095892382A3789400C0E1E821
:102DD000F1E0712C31E021912F3F09F4BDC0A22F09
:102DE000A295AF70B0E090968C9190E02F7002C0E9
:102DF000959587952A95E2F780FDAEC0832F782AB6
:102E0000330F51E0E838F50731F7F701319780814A
:102E10008F3F11F00E94F00680EA8A95F1F7D60103
:102E20007C92BFEFCB1ADB0AAE14BF0409F0B2CF1D
:102E30004AE050E0B80186E692E00E94352A7C0123
:102E4000892B41F08AE0F801A6E6B2E001900D92EC
:102E50008A95E1F710917102E114F10449F081E0E3
:102E6000809330020E94240490932F0280932E02BC
:102E7000809130028823B9F080912E0290912F0228
:102E80000E940904059778F0A6E6B2E0E12FF0E091
:102E9000E758FD4F8BE692E02D9121938A179B070F
:102EA000D9F710923002E114F10409F01EC10E941A
:102EB000A10DB82EE0917102882309F484C06E013F
:102EC000FBE0CF0ED11C85E0D6011D928A95E9F773
:102ED0000E2F10E007581D4F809161028A30F0F5E7
:102EE00040E156E1B601C8010E946E0D882309F445
:102EF00057C04AEB55E1B601C8010E946E0D882308
:102F000009F44EC046E955E1B601C8010E946E0DB4
:102F1000882309F445C048E655E1B601C8010E947E
:102F20006E0D8823E9F1109261028091700290E0A9
:102F300045E050E0B60187589D4F0E94352A21E0B8
:102F400020933702892BF9F4B12CEB2CF12C8E2D28
:102F50002F96EDE00C941F2980E051CF8091310233
:102F6000909132020E940904843F914008F0B8CF4A
:102F700080913702882359F385E0F60111928A95F2
:102F8000E9F710923702A0917002B0E0A758BD4F48
:102F900085E0FE013B9601900D928A95E1F7D5CF31
:102FA000809161028F3F19F08F5F80936102809161
:102FB00061028A3008F4B9CF0E942404909332024F
:102FC00080933102D5CFF0E0E758FD4F85E0A3E4D0
:102FD000B2E001900D928A95E1F783E492E00E94BD
:102FE0006B02809342028090480290904902A09028
:102FF0004A02B0904B028091330290913402A0912A
:103000003502B091360288169906AA06BB06D1F0A1
:103010008092330290923402A0923502B09236022E
:103020000E94A10D81110EC00E941804861A970AF1
:10303000A80AB90A8092620290926302A092640286
:10304000B092650280914C020E945C04809154020F
:10305000882309F47CCF80FF0EC090914D028091AF
:10306000CF0290FF29C081608093CF0260E0892F5A
:1030700086950E94650F8091540281FF09C020E06F
:103080004091500260914F0280914E020E946F0E5B
:103090008091540282FF06C080915302882311F16F
:1030A0000E94410E8091540283FF03C081E080930F
:1030B000A202109254024BCF8E7F8093CF020E94C7
:1030C00007058091A70281608093A702FFEF20E7A8
:1030D00042E0F15020404040E1F700C000000E9473
:1030E000830AC9CF0E940705DDCFEE24E394F12CBB
:1030F0002ECF68EE7EEF90E080E00E94672960E0CE
:1031000082E090E00E94492960E083E090E00E9424
:10311000492910922A0210922B0210922C0210922E
:103120002D0260E084E090E00E94492964E082E2A0
:1031300090E00E94492960E085E090E00E944929E2
:1031400060E086E090E00E9449296FEF87E090E020
:103150000E94492940E050E0BA0188E090E00E94D6
:103160005B2960E08DE090E00E94492940E050E05A
:10317000BA0188E190E00E945B2960E087E190E07D
:103180000E94492940E050E0BA018CE190E00E94A1
:103190005B2970E060E080E290E00E94672940E0F7
:1031A00050E0BA0188E190E00E945B290E941B0E6A
:1031B00085E00E94000EEFECF2E080818160808368
:1031C00086950E94A50F21E04FEF6FEF80E00E94EF
:1031D0006F0E8BE00E94A50F40E050E0BA018FE037
:1031E00090E00E945B2940E050E0BA0183E190E06A
:1031F0000E945B2908954F925F926F927F92AF92E7
:10320000BF92CF92DF92EF92FF920F931F93CF93D3
:10321000DF93CDB7DEB72A970FB6F894DEBF0FBEA7
:10322000CDBFFC018081918123813481232B39F032
:103230009F3F19F491E08F3F19F090E001C091E0B9
:10324000292F2170B22E90FD68C07F0185E0DE013C
:10325000169601900D928A95E1F7F70122818E81F1
:103260009F812223D1F10E942E09182F682F8E8171
:103270009F810E94AC096E817F81812F0E944A0745
:103280008C01F70182810E3AFDE51F0751F1811192
:1032900059C0043F2CE5120709F444C108F049C69F
:1032A000093D8CE5180709F439C10A3D9CE5190769
:1032B00009F444C1083DECE51E0709F469C0063174
:1032C000FCE51F0709F04CC28091B801882309F47E
:1032D00045C285E30E94FF0851C10E947709182F5B
:1032E000CACF882359F061E083E090E00E94492929
:1032F00061E070E080E090E00E94C61080911E02C4
:10330000877059F0F7018281882339F08091770224
:1033100082FF03C082E00E946C102A960FB6F894D8
:10332000DEBF0FBECDBFDF91CF911F910F91FF90F8
:10333000EF90DF90CF90BF90AF907F906F905F90B5
:103340004F9008950E3B2CE5120709F44DC038F557
:103350000C3B9CE5190709F441C00D3BECE51E0749
:1033600009F440C0043F9CE5190709F4DBC008F0EC
:103370007CC0093DFCE51F0709F4D0C00A3D2CE5DF
:10338000120709F4DBC0083D3CE5130709F079C0DA
:1033900026E241EE61EEC7010E94D111AFCF003CA1
:1033A000FCE51F0709F450C0D8F1013C3CE51307C8
:1033B000C9F69091D402892F8695869586958F5F60
:1033C0008F719770883008F04DC0880F880F880F74
:1033D000892B8093D4028091D4020EC087E00E9492
:1033E000000E8CCF80E0FBCF8091D402982F987F85
:1033F00079F088508093D402887F91E009F490E0BE
:103400008091D40290FB80F98093D4020E94FA0D3F
:103410008091D4028695869586950E945C046ECF35
:103420008091D402982F969596959695973040F472
:103430009F5F990F990F990F8770892B8093D40202
:103440008091D4028160E0CF8091D40280FF07C0D8
:103450008E7F8093D4020E94FA0D80E0DECF0E941E
:103460001B0E4CCF9093D402B6CF063F9CE51907B4
:1034700009F460C008F45AC0073FFCE51F0709F4CF
:1034800064C5882309F41BCF1092FC0204302DE59B
:10349000120708F056C00B3F3CE5130730F4C80193
:1034A00082509C45449708F056C00E94330E90937A
:1034B0007702809376020131ECE51E0709F41AC108
:1034C00008F094C009302CE5120709F4FDC008F09B
:1034D00066C005308CE5180709F4E8C008F051C053
:1034E0000330ECE51E0709F4D7C008F0DBC080917B
:1034F0007602816002301C4509F4D1C060917602E9
:103500001091770284E090E00E944929612F82E2C5
:1035100090E00E9449290E943812F0CE27E245EE41
:1035200065EE39CF26E241EE60EE35CF27E245EE7B
:1035300064EE31CF26E241EE62EE2DCF28E241E08B
:10354000EFCF02368DE5180709F4AFCF063A9DE5B7
:10355000190709F4AACF06313CE5130709F0F9C4AD
:10356000809128028A7A91E009F490E09093B80162
:10357000882309F4F1C085E30E940B090E94E50F3E
:10358000BDCE80917602806207303CE5130709F4D6
:1035900086C008F495C080917602806480C00D30AA
:1035A0009CE5190709F496C098F4809176028E7F05
:1035B0000B30FCE51F0709F472C080917602886029
:1035C0000C301C4508F470C0809176028D7F67C076
:1035D000809176028F7E0F303CE5130709F45FC0BF
:1035E00008F47CC0809176028F7D59C00E3F9CE527
:1035F000190709F47BC028F50531FCE51F0709F41C
:103600008BC080F403313CE5130709F47DC008F456
:1036100075C00E94381290917602892F97FB87F926
:1036200080583DC00C3F9CE5190709F443C008F0E1
:1036300059C0809177020B3F1C4509F05FCF816034
:103640003CC002302DE5120709F472C0A8F4011540
:103650008DE5180709F45CC0809177028260013023
:103660001D4568F380917702982F909591708E7F19
:10367000892B90FB81F921C00236EDE51E0709F484
:103680005DC0063AFDE51F0709F45FC003301D4524
:1036900009F034CF60E04DC0809176028260809363
:1036A00076022CCF809176028460F9CF80917602E9
:1036B0008860F5CF809177028260809377021ECF79
:1036C000809176028061EBCF0E9438128091760261
:1036D0008068E5CF809176028B7FE1CF8091760282
:1036E000877FDDCF809177028E7FE7CF8091770251
:1036F0008D7FE3CF809176028F7BD1CF0E943812ED
:10370000809176028F77CBCF80917602877FE4CF4E
:10371000809177028D7FE8CF8091760282FB992796
:1037200090F921E0922790FB82F990FB83F9B7CFC3
:1037300061E08EE090E00E944929E0CE909176020F
:10374000892F8F7E94FF8061AACF90917602892F76
:103750008E7F90FF8160A3CF89E20ECF89E2BACD40
:103760008091280282720D3C9CE5190709F416C16C
:1037700008F095C0073CFCE51F0709F4FBC008F002
:103780006EC0043C3CE5130709F4EAC008F057C0DA
:10379000033C1C4509F4BBC0F70182810081118103
:1037A000882309F43DC1C8010E942E09D82E682F34
:1037B000C8010E94AC09B8018D2D0E944A070E94E1
:1037C00064078C01782EF701D280A580A2943FE097
:1037D000A32280911E028770C1F0DD20A9F0812F05
:1037E000807F803421F080E2800F883070F08091FB
:1037F000770282FF0AC082E00E946C1080911E0254
:103800008770BB24B3948111B12CC12EC2942FE0D8
:10381000C222FBE0FC1508F4E5C1EC2DF0E0ED5E02
:10382000F34E0C94E529151D151D4E1D4E1DEB1D67
:103830000A1EF21DF21D151EEC1EFD1EFD1E053C8E
:10384000FCE51F0709F491C04DE25FE067E37FE00C
:10385000063C1C4509F0A0CF0E9400054FCD0A3C54
:103860003CE5130709F490C068F4083CECE51E073A
:1038700009F485C040E25FE063E17FE0093C1C455C
:1038800059F38ACF0B3C2CE5120709F482C041E4BE
:103890005FE063E57FE00C3C1C45F1F27DCF023D2B
:1038A0008CE5180709F487C0A8F40F3CECE51E0767
:1038B00009F47BC008F477C0003D2CE5120709F439
:1038C00077C06EE089E0013D1C4509F065CF0E949C
:1038D000BE0F14CD053D8CE5180709F472C068F4DD
:1038E000033DECE51E0709F469C088E1043D1C4571
:1038F00009F052CF0E94A50F01CD063D2CE512071D
:1039000009F462C00E351D4509F4F8CC45CF80910D
:10391000CF0280FF20C08E7F8093CF026091CF02C4
:103920007091D0028091D1029091D2020E945C0EDF
:103930000E9407058091A70281608093A7028FEF04
:1039400090E7E2E081509040E040E1F700C00000E5
:103950000E94830AD3CC81608093CF028695CACF20
:1039600049EA5FE063EB7FE077CF43EB5FE069EA32
:103970007FE072CF47E35FE06DE27FE06DCF43E130
:103980005FE060E27FE068CF49EF5EE066E07FE005
:1039900063CF46E05FE069EF7EE05ECF43E55FE046
:1039A00061E47FE059CF81E0A5CF65E082E08FCF71
:1039B00068E086E08CCF64E18FE089CF67E185E144
:1039C00086CF62E289E183CF83E294CF0E943812EE
:1039D000FFEF24E33CE0F15020403040E1F700C02D
:1039E000000087E797E7909301088093000888E13B
:1039F0009AE00FB6F894A895809360000FBE90935C
:103A00006000FFCF8091770282FB882780F991E0E8
:103A100089270E948810C0CE81E0FBCF80E0F9CFDB
:103A2000C8010E947709D82EC6CE212F2F70C22E32
:103A3000107F19F0C29490EFC922802FDD20B9F0D9
:103A4000CC2069F090E2900F983010F0011109C07D
:103A500080912802C82AC09228020E94E50F802F78
:103A600049C080912702C82AC0922702F6CF0E943F
:103A7000E210CC2009F440C0005E083010F0711054
:103A800004C08C2D0E94F70806C0C09480912702C4
:103A9000C822C09227020E94E50F2EC0312F3F702E
:103AA000C32E107F103219F0C29480EFC822772005
:103AB00089F091E0791609F470C0DD2009F47AC02C
:103AC000AA2009F470C0F701858180FFC8CF8F70EC
:103AD000858369C02091770222FD3CC0DD20A1F1E1
:103AE000CC2039F080912802C82AC09228020E9476
:103AF000E50F80E00E943B11BB20A9F080911E02DF
:103B000080FD11C0F70112828595859585950E94EB
:103B1000A410C7010E94FB1880911E02859585950F
:103B200085950E94481085E0F701DE01119601900D
:103B30000D928A95E1F709811A81C8010E947709DF
:103B4000B8010E944A07E9CB80E00E94E210CC2035
:103B500099F297CFDD20A1F0909129028C2D892B2D
:103B6000A11003C00E94D810C7CFE1E0AE12FACF77
:103B700022FFC2CF891709F4BFCF80932902BCCF9F
:103B8000A11006C00E94F1088C2D0E94D110B4CF64
:103B9000F1E0AF1609F4B0CFF5CFDD2031F025E02C
:103BA0002A1508F4A9CF8C2DDDCF34E03A1508F49E
:103BB000A3CFEACFAA2041F3093349F4FFEF27EE60
:103BC00033E0F15020403040E1F700C00000802F8A
:103BD0000E94E21091CF812F86958695837041F0E7
:103BE000813079F088EF8C0D843008F085CF68C083
:103BF000C8019370D11002C090E080E00E9446049A
:103C00007BCFC8019370D11002C090E080E00E9489
:103C1000300472CF802FDD2029F00E9494060E948C
:103C2000AC056ACF0E94D605FACF812F837009F0C8
:103C300068C0D11045C0802F829586958770880F07
:103C4000880F602F6F70462E512C712C612C082E1E
:103C500004C0440C551C661C771C0A94D2F740E043
:103C600050E0BA0104FF0FC04FE050E060E070E0A8
:103C700004C0440F551F661F771F8A95D2F74095E1
:103C8000509560957095812F8695869583708230CA
:103C900029F1E8F400912A0210912B0220912C02C4
:103CA00030912D02813079F04429552966297729F0
:103CB000CB01BA0160237123822393230E94C61093
:103CC0000E94C40D19CF402A512A622A732ACB01BF
:103CD000BA016429752986299729F0CF44295529E5
:103CE0006629772900912A0210912B0220912C023B
:103CF00030912D02CB01BA016027712782279327CB
:103D0000DDCF8695DD2011F0812F81708823C1F2EF
:103D1000802F829586958770880F880F602F6F702F
:103D2000462E512C712C612C082E04C0440C551CBD
:103D3000661C771C0A94D2F740E050E0BA0104FFF9
:103D40000FC04FE050E060E070E004C0440F551F2A
:103D5000661F771F8A95D2F74095509560957095AC
:103D6000812F869586958370823019F1D8F4009161
:103D700072021091730220917402309175028130A9
:103D800069F04429552966297729CB01BA016023B6
:103D90007123822393230E943D1092CF402A512AFF
:103DA000622A732ACB01BA016429752986299729C9
:103DB000F2CF442955296629772900917202109182
:103DC00073022091740230917502CB01BA01602711
:103DD000712782279327DFCF1F70DD2039F0812FD5
:103DE0000E94A410802F0E94D8106ACF802F0E94BA
:103DF000D110812F0E94481063CF802F92EF791647
:103E000009F449C0971580F0E0EF7E16F1F0F1EF6C
:103E10007F16A1F0DD2009F478C0AA2009F472C051
:103E2000802F0E943B11DECE23EF7216D9F134EFC2
:103E30007312F0CF8091770282FD46C0812F8F717F
:103E4000DD2069F10E94A410CDCEDD20F9F084E0E0
:103E50008A1508F4C7CE1F7161E070E080E090E041
:103E600004C0660F771F881F991F1A95D2F700911B
:103E700072021091730220917402309175026027D2
:103E80007127822793270E943D10ACCE95E09A15AA
:103E900008F4A8CEE0CF812F8F71DD2099F20E9427
:103EA0004810A0CE60E070E0CB01DD2061F31F710F
:103EB00061E070E080E090E004C0660F771F881F2B
:103EC000991F1A95D2F7DFCFDD2089F01F71812F5E
:103ED0000E94A4108091770282FF07C0E8E01E9F35
:103EE000C0011124836080931E02812FABCF81E03B
:103EF0000E946C10F1E0FA1508F074CE82E00E9486
:103F00006C1070CE812F8F719DCFAA2079F08933EC
:103F100049F42FEF37EE83E0215030408040E1F745
:103F200000C00000802F0E94E2105CCE812F8F71B4
:103F3000B6CF063FFCE51F0709F4FCCA08F4F6CA31
:103F4000073F3CE5130709F0BAC927E245EE66EEE4
:103F500022CA0B358DE5180709F45ECD68F401150A
:103F6000ECE51E0709F432CD0F3D1C4509F014CCD9
:103F70000E9479180E9401150D352DE5120709F4EC
:103F800041CD08F44BCD083A1D45A1F305CC0F9364
:103F90001F93CF93DF938091EB01807F09F051C095
:103FA0008091E801882309F44CC080911D02109192
:103FB000EC016091E6017091E701C091E901D091B7
:103FC000EA0121E06F3F09F020E006E01817C9F18F
:103FD00031E0209721F0322F7F3F09F030E090E070
:103FE00030FD34C0089FF001099FF00D1124DF015E
:103FF000A351BE4F11963C911197371327C03C91A6
:10400000361324C012963C91129731111FC013969B
:104010004D915C914C1B5D0B483C5105B8F480916F
:10402000EB018F7080618093EB01EE50FE4F808139
:104030008F708061808386EE91E00E94FB180E9461
:104040002409DF91CF911F910F91089501968770F8
:10405000BDCFA1E1B0E0EFE2F0E20C9405298C01C4
:1040600085E0F801DE011D9601900D928A95E1F739
:10407000F801E2809091E6016091E7014091E90149
:104080005091EA0181E04115510531F06F3F19F47B
:1040900081E09F3F09F080E0F82FF1709F2E80FDB6
:1040A00029C1F80130812181C380D48086EEA82EF9
:1040B00081E0B82EF090E801F601E41BF50BFF203B
:1040C00009F4E3C08091EB01782F707FE83CF105A3
:1040D00008F0A6C0711172C0FE2C621314C09313B5
:1040E00012C0E11010C08F7080618093EB01C50198
:1040F0000E94FB188091EB01F80185838F2D61965A
:10410000EBE00C94212981E0C114D10431F02F3F60
:1041100019F481E03F3F09F080E080FD23C081E099
:104120008E25F82FF170DF2E80FF3EC080911D029A
:104130004091EC0156E0841317C03D872E878D8592
:104140009E850E946A09292F22952F70223000F146
:10415000243028F59F7001F1F8019581907FE1F4FA
:10416000F92CCCCF80E0DDCF90E0589FF001599F33
:10417000F00D1124E351FE4F6181261306C06081CA
:10418000361303C06281E6120FC001968770D3CF49
:104190009F7011F0882321F3805E883008F3C801F6
:1041A0000E94FB189D2CDCCFEE2009F4A7CF809154
:1041B000EB0181608093EB01F12CA0CF621306C06C
:1041C000931304C0F801EE2009F479C0C8010E94DD
:1041D000E409882309F1EE20F9F08091EB018032A7
:1041E00070F02091E6013091E70138872F8319861E
:1041F000DB86CA868C87CE0107960E94FB1886E074
:10420000F801A6EEB1E001900D928A95E1F70E94C7
:10421000C71FFF24F39472CFC8010E94FB18F9CF87
:1042200071110AC086EE91E00E94FB1886E0F5014C
:1042300011928A95E9F7C0CF62130FC093130DC096
:10424000E1100BC0F8018583C8010E94FB1886E0CD
:10425000F50111928A95E9F751CFC8010E94E4094E
:104260008823D1F2EE20C1F28091EB01803238F246
:104270002091E6013091E7013A8329831B82DD8298
:10428000CC828E83CE010196B8CFE83CF105F8F6DA
:10429000FE2CEE2009F262131FC093131DC0809103
:1042A000EB0180FD10C0982F907F69F0F8018583A5
:1042B000903F31F0982F907F905F8F70892B85838E
:1042C000C8010E94FB1886E0F801A6EEB1E001905B
:1042D0000D928A95E1F712CFC8010E94E40981117D
:1042E0008ECF8091EB0181608093EB01C8010E9429
:1042F000FB1804CFEE2009F48FCFC8010E94E40917
:10430000F82E882309F488CF86E0F801A6EEB1E004
:1043100001900D928A95E1F78091E6019091E70175
:104320000E946A090E94C71FE9CEA7E1B0E0EBE94D
:10433000F1E20C940D294B8B5C8B6D8B7E8B8F8BFC
:104340006111109227021A8A198A85E0FE0173967C
:10435000DE011D9601900D928A95E1F786E0FE013F
:104360003D96DE01179601900D928A95E1F7CE01F8
:1043700007960E942920811137C086E0FE013796FA
:10438000DE01119601900D928A95E1F79F81888553
:104390002A853B85232B39F08F3F19F481E09F3F1D
:1043A00019F080E001C081E080FD1EC02091EC0189
:1043B00030E0C90101968770992740911D02481786
:1043C000190659F196E0929FD001939FB00D1124E8
:1043D000A351BE4FFE01319601900D929A95E1F7DF
:1043E0008093EC010E94240916E080911D029091B7
:1043F000EC018917F9F0819FC001112483519E4F70
:104400000E9429208823B1F080911D0290E001963E
:104410008770992780931D02E8CF0E94381210926E
:10442000EC0110921D0286E0E6EEF1E0DF011D9244
:104430008A95E9F76796E3E00C94292990E080E0FB
:104440000E944329883E9E4F51F00E947918809126
:10445000D402847089638093D4020E94FA0D86E0AE
:1044600090E00E9435298093D402803420F0877038
:1044700088638093D4028091D40280FF06C0869521
:10448000869586950E945C04089580E0FBCF1F927C
:104490000F920FB60F9211242F933F934F935F9378
:1044A0006F937F938F939F93AF93BF93CF93EF932C
:1044B000FF93C091E900CF708091EC001092E90069
:1044C0008091F000877F8093F00078940E944412DE
:1044D0001092E9008091F00088608093F000C09312
:1044E000E900FF91EF91CF91BF91AF919F918F9193
:1044F0007F916F915F914F913F912F910F900FBEE0
:104500000F901F9018951F920F920FB60F921124C3
:104510002F933F934F935F936F937F938F939F93CB
:10452000AF93BF93EF93FF938091E10082FF09C0A7
:104530008091E20082FF05C08091E1008B7F809333
:10454000E1008091DA0080FF24C08091D80080FFD4
:1045500020C08091DA008E7F8093DA008091D900AC
:1045600080FF9BC080E189BD82E189BD09B400FE66
:10457000FDCF81E08093F0028091E302811109C0B8
:104580000E9482020E944B038091E200846080932B
:10459000E2008091E10080FF17C08091E20080FF7F
:1045A00013C08091E2008E7F8093E2008091E20050
:1045B00080618093E2008091D80080628093D8006F
:1045C00019BC85E08093F0028091E10084FF29C04E
:1045D0008091E20084FF25C080E189BD82E189BD30
:1045E00009B400FEFDCF8091D8008F7D8093D80064
:1045F0008091E1008F7E8093E1008091E2008F7EC8
:104600008093E2008091E20081608093E2008091DB
:10461000F102882309F447C084E08093F00280917E
:10462000F0028091E10083FF27C08091E20083FFC8
:1046300023C08091E100877F8093E10082E0809336
:10464000F0021092F1028091E1008E7F8093E100F0
:104650008091E2008E7F8093E2008091E200806191
:104660008093E20042E060E080E00E9419038091C4
:10467000F00088608093F000FF91EF91BF91AF91BF
:104680009F918F917F916F915F914F913F912F916A
:104690000F900FBE0F901F90189519BC1092F0024A
:1046A0001092E30276CF8091E30087FD02C081E0A3
:1046B000B4CF83E0B2CF78941F920F920FB60F92CF
:1046C00011248F939F93AF93BF938091DC029091BD
:1046D000DD02A091DE02B091DF020196A11DB11DA5
:1046E0008093DC029093DD02A093DE02B093DF02A0
:1046F000BF91AF919F918F910F900FBE0F901F9020
:1047000018951F920F920FB60F9211248F939F93BB
:10471000AF93BF938091DB02811113C08091DC02C3
:104720009091DD02A091DE02B091DF024196A11DC1
:10473000B11D8093DC029093DD02A093DE02B09362
:10474000DF02BF91AF919F918F910F900FBE0F909D
:104750001F901895CF93DF93CDB7DEB760970FB654
:10476000F894DEBF0FBECDBF85B7806885BF85B723
:10477000806885BF84B7877F84BF0FB6F894A895FB
:1047800080916000886180936000109260000FBE8D
:1047900080E890E00FB6F8948093610090936100F8
:1047A0000FBE8EEE96E09093AF018093AE010E9413
:1047B00082020E944B038091E20084608093E200B9
:1047C00078948091F002882399F01091E9001F708D
:1047D0008091EC0080FD69C280E0182B1092E90006
:1047E0008091E80083FD0E9444121F701093E9003D
:1047F00082E084BD93E095BD9AEF97BD80936E00F3
:10480000109262021092630210926402109265028A
:1048100052985A9889B182FB882780F980932801A1
:1048200080912801882309F442C21092430187E055
:10483000809344010E94A10D81110E949B278091C9
:1048400028018091280195E0811190E090937102F8
:1048500085E0891B809370020CE711E0D8018D91EF
:104860008D018F3F11F00E94F006B1E001381B0767
:10487000A9F701E811E088E8E82E81E0F82EF801B8
:1048800081918F018F3F11F00E94F006E016F10632
:10489000B1F78AE0E9E7F2E0DF01282F1D922A95BF
:1048A000E9F7E6E6F2E0DF011D928A95E9F790E08C
:1048B00080E00E944329883E9E4F11F00E947918A3
:1048C00082E090E00E943529809383020E94330E9B
:1048D000909377028093760283E090E00E943529DE
:1048E000682F70E090E080E00E94C610269A2E9813
:1048F00082E28093800089E1809381008FEF9FEFB7
:1049000090938700809386000E941E220E941E22A0
:104910008091780281113BC090E080E00E944329A1
:10492000883E9E4F21F00E9479180E94CD0F88E0AA
:1049300090E00E943D296093CF027093D002809353
:10494000D1029093D2028091A70283608093A70244
:104950006E7F71F40E94CD0F88E090E00E943D29A7
:104960006093CF027093D0028093D1029093D202D1
:104970000E940E050E9407058091CF0280FF04C0AF
:1049800060E086950E94650F81E0809378020E9426
:10499000A10D811102C00E949E2789E291E09093AF
:1049A000D8028093D702F8E1EF2EF12CA0E4BA2EC2
:1049B000B3E8CB2EB2E0DB2E8091F00200E112E1F1
:1049C000853009F4AEC10E94B01681110E9418040E
:1049D000A9E7B2E0E4E8F2E010E000E0602E8D909C
:1049E0008191881509F4AEC1712C9924939488257E
:1049F000982F992109F4A1C10E94A10D882399F053
:104A00007F826886892081E009F480E089870E949E
:104A100024048160782F9B878A874F815885698518
:104A20008B850E949521F801EC57FD4F80819826D7
:104A300090820E94A10D8091A602882309F464C08F
:104A40008091A502E091CF02E695E81BE093A102D8
:104A5000823009F08EC1F0E0EA5BFE4FE4910E2F48
:104A600010E0EAE56E2EEDE07E2E8091A202882312
:104A700061F01092A2020E94EF0D9093A002809329
:104A80009F021092A4021092A3020E94EF0DE091E7
:104A90009F02F091A0029C012E1B3F0B2F3F3F472E
:104AA00098F5209190022223B1F01092900220916B
:104AB0008E0230918F02821B930B8F3F9F4758F4D9
:104AC000205D3A4830938F0220938E028091A70296
:104AD00088608093A7028090A3029090A402E00FC8
:104AE000F11FF093A002E0939F028FE992E0F3019F
:104AF00009958091A3029091A402892B29F4892819
:104B000019F081E08093900286E0E9E9F2E0DE01AD
:104B1000119601900D928A95E1F710929B021092E6
:104B20009C0210929D0210929E021B81111104C0E2
:104B30008C81882309F449C0809197029091980252
:104B40000E9409049C0190919302992309F491C158
:104B500025313105D0F19F3F19F09F5F909393026B
:104B6000112359F00E9474069FEF11160CF491E086
:104B7000899F802D112480939B021C81112359F061
:104B80000E9474069FEF11160CF491E0899F802D0E
:104B9000112480939C0230919B023323B1F0209129
:104BA0009C02222391F045EB3403C0011124992388
:104BB00009F439C190939B0245EB24039001112421
:104BC000332309F434C130939C021D81111104C0B8
:104BD0008E81882309F449C08091950290919602B4
:104BE0000E9409049C0190919202992309F446C104
:104BF00021353105D0F19F3F19F09F5F90939202CC
:104C0000112359F00E9452069FEF11160CF491E007
:104C1000899F802D112480939D021E81112359F0BC
:104C20000E9452069FEF11160CF491E0899F802D8F
:104C3000112480939E0230919D023323B1F0209184
:104C40009E02222391F045EB3403C00111249923E5
:104C500009F4F1C090939D0245EB240390011124C7
:104C6000332309F4ECC030939E0246E050E0BE01CD
:104C70006F5F7F4F89E992E00E94352A892B11F0FE
:104C80000E94AC0586E0FE013196A9E9B2E00190F0
:104C90000D928A95E1F70E94C40D909191028917B7
:104CA00009F48ACE8093910287CE80E896CD87E082
:104CB00080934301BDCD8091F002843021F180E0EA
:104CC0000E945C041092DB020FB6F894A895E09263
:104CD00060000FBEB092600083B7817F846083BFA5
:104CE00083B7816083BF7894889583B78E7F83BFB5
:104CF0000FB6F894A8958091600088618093600059
:104D0000109260000FBE8091EF02882351F00E9444
:104D1000B016E9E7F2E08191811195C0CE16DF0669
:104D2000D1F78091F002853009F4C5CF0E94381286
:104D30000E941E220E94C40D46CE7394990C27E057
:104D4000721256CE0F5F1F4F0A30110509F046CE82
:104D50008FEF8C878D871E860E9424048160782FB8
:104D6000988B8F874C855D856E8588890E949521FB
:104D700060CE863059F4F0E0ED5BFE4FE4910E2FEB
:104D800010E07AE4672E7DE0772E6FCE893061F4F3
:104D9000E695F0E0E05CFE4FE4910E2F10E063EA50
:104DA000662E6CE0762E61CE8F3061F4E695F0E0F1
:104DB000E35CFE4FE4910E2F10E058E1652E5CE0BD
:104DC000752E53CE853159F4F0E0E65CFE4FE49148
:104DD0000E2F10E043E9642E4BE0742E46CE08E21D
:104DE00010E099E0692E9BE0792E883109F43DCEE0
:104DF000833249F4E8E3F1E00591149139EF632E31
:104E00003CE0732E32CE04EF11E02CEC622E2AE04F
:104E1000722E843209F429CE00ED17E086E0682E68
:104E200085E0782E22CE81E080939B02C5CE81E082
:104E300080939C02CACE81E080939D020DCF81E0D9
:104E400080939E0212CF09BD19BD09B400FEFDCFAB
:104E50008091D8008F7D8093D8008091E00082609F
:104E60008093E0008091E00081FDFCCF0E94381229
:104E700058CF2B30310508F070CEA7CE2B3031053E
:104E800008F0BBCEF2CE8EE1489B02C08150E1F724
:104E9000489BFECF0895589880E28A95F1F7589A7A
:104EA0000895FC013BE03A95F1F798E020E080E0BE
:104EB00031E040E14A95F1F7880F489B02C08160DC
:104EC000232742E04A95F1F7000040E14A95F1F7C7
:104ED000915079F790E19A95F1F799B132E03A95CE
:104EE000F1F7000040E14A95F1F791709227208197
:104EF000920F90830895A1E0B0E0E1E8F7E20C940E
:104F00000A2919828C017C01E60EF11C0E151F0581
:104F100041F481E09981911180E02196E6E00C94C2
:104F200026290E944327CE0101960E945127F801AD
:104F300081938F01EBCF509A589A08955098589AC0
:104F4000E89AE9E6F0E080818C7F808308956150E3
:104F5000770B91E001C0990F6A95EAF720E031E004
:104F6000911108C0222391F0589A80E28A95F1F7B6
:104F700058980895492F482339F0589A232740E23A
:104F80004A95F1F79695ECCF5898F9CF5898EDCF10
:104F9000FF920F931F93CF93DF93EC018C01060FC9
:104FA000111DC017D10729F4CDB7DEB7E5E00C9489
:104FB0002729F9900E944B2768E08F2D0E94A72790
:104FC000F0CF1F920F920FB60F9211240F931F93E1
:104FD0002F933F934F935F936F937F938F939F9301
:104FE000AF93BF93EF93FF93CF93DF931F92CDB710
:104FF000DEB719820E944327CE0101960E945127F5
:10500000082F069506950695982F92959570202F56
:105010002570920F292F237096959695920F877081
:1050200089135FC0898181115CC0063008F059C0C6
:1050300080E18A95F1F7589A509A82E08A95F1F7C3
:1050400000C0589888E0089F80011124D801A05022
:10505000BF4F1696ED91FC9117973097A9F060918C
:105060007A0170917B0114962D913C911597260F32
:10507000371F11968D919C911297680F791F139687
:105080004C9113978C910995F801E050FF4F638183
:10509000662351F080917A0190917B0124813581C2
:1050A000820F931F0E94C8270E944B2780E18A9598
:1050B000F1F758985098589A80E18A95F1F7F801DD
:1050C000E050FF4F6081662351F080917A0190910A
:1050D0007B0121813281820F931F0E947B270E94D6
:1050E00043270F90DF91CF91FF91EF91BF91AF9147
:1050F0009F918F917F916F915F914F913F912F91F0
:105100001F910F910F900FBE0F901F9018950F9346
:105110001F93CF93DF93863091050CF04DC0EC01C7
:10512000F894509A589885E08A95F1F700009C2FE2
:10513000969595708C2F8570980F892F8370969512
:10514000969523E0CC0FDD1F2A95E1F7980F8E018D
:10515000092B0E944B2700C068E0802F0E94A727E0
:1051600080E18A95F1F75098589A489B1EC087E0D5
:1051700090E048991CC0FE01E050FF4F6381662318
:10518000F9F080917A0190917B0124813581820F21
:10519000931F0E947B27811113C0509A589A7894CC
:1051A000DF91CF911F910F91089500C0DECF01973D
:1051B00029F4509A589A789480E0F2CF00C0D9CF61
:1051C0000E94432780E28A95F1F75898509A80E12F
:1051D0008A95F1F7C050DF4F6881662351F08091C6
:1051E0007A0190917B0129813A81820F931F0E945D
:1051F000C8270E944B27789481E0D2CF2F923F920C
:105200004F925F926F927F928F929F92AF92BF92D6
:10521000CF92DF92EF92FF920F931F93CF93DF9382
:10522000CDB7DEB7CA1BDB0B0FB6F894DEBF0FBEDF
:10523000CDBF09942A88398848885F846E847D842C
:105240008C849B84AA84B984C884DF80EE80FD802E
:105250000C811B81AA81B981CE0FD11D0FB6F894A4
:10526000DEBF0FBECDBFED010895F999FECF92BD0F
:1052700081BDF89A992780B50895A6E1B0E044E091
:1052800050E00C946F29A8E1B0E042E050E00C94AB
:105290006F29262FF999FECF92BD81BDF89A01970B
:1052A00000B4021639F01FBA20BD0FB6F894FA9A6E
:1052B000F99A0FBE08950396272F0E944A290E944B
:1052C0004929252F0E944A29242F0C944A29019606
:1052D000272F0E944A290C944929DC01CB01FC01AB
:1052E000F999FECF06C0F2BDE1BDF89A319600B43F
:1052F0000D9241505040B8F70895DB018F939F9372
:105300000E94092ABF91AF91A29F800D911DA39F7A
:10531000900DB29F900D1124089587FB082E06264C
:1053200087FD819567FD61950E941C2A0EF4919579
:1053300007FC81950895AA1BBB1B51E107C0AA1F5A
:10534000BB1FA617B70710F0A61BB70B881F991F26
:105350005A95A9F780959095BC01CD01089597FBCA
:10536000072E16F4009407D077FD09D00E949B29E0
:1053700007FC05D03EF4909581959F4F0895709558
:1053800061957F4F0895A1E21A2EAA1BBB1BFD0158
:105390000DC0AA1FBB1FEE1FFF1FA217B307E40714
:1053A000F50720F0A21BB30BE40BF50B661F771F6C
:1053B000881F991F1A9469F760957095809590954C
:1053C0009B01AC01BD01CF010895EE0FFF1F0590B9
:1053D000F491E02D09940E94F329332312F48A1BDF
:1053E0009B0B0C94042AA29FB001B39FC001A39F02
:1053F000700D811D1124911DB29F700D811D11240E
:10540000911D08950E94F329B7FF0895821B930B05
:1054100008950E94F329A59F900DB49F900DA49F1D
:10542000800D911D11240895B7FF0C94092A0E9444
:10543000092A821B930B0895991B79E004C0991FD8
:10544000961708F0961B881F7A95C9F780950895DE
:10545000FC014150504030F001900616D1F73197D1
:10546000CF010895882799270895FB01DC0104C026
:105470008D910190801921F441505040C8F7881B4C
:10548000990B0895FB01DC0102C001900D9241507F
:0A5490005040D8F70895F894FFCFBC
:10549A0000000001000000000000000501000000FB
:1054AA000406000000000000010A000000000000DD
:1054BA00080B000000000000010604570A380A33EE
:1054CA000A2E0A050401191A1B1C1D1E1F2021225F
:1054DA00010201000C000C0C01818283E200E90048
:1054EA00EA00B500B600B700CD008301CC008A01FE
:1054FA009201940121022302240225022602270294
:10550A002A02B300B4006F00700042029497C634B6
:10551A0035F4F5F6F73133320001020202020606CB
:10552A00060909090909090F0F0F0F0F0F1515159C
:0E553A0018191919191919191919192324000A
:00000001FF
